:100000000C943A000C9457000C9457000C94570031
:100010000C9457000C9457000C9457000C94570004
:100020000C9457000C9457000C9457000C945700F4
:100030000C9457000C9457000C9457000C945700E4
:100040000C9457000C9457000C9457000C945700D4
:100050000C9457000C94EB000C9457000C94570030
:100060000C9457000C9457000C9457000C945700B4
:100070000C94570011241FBECFEFD2E0DEBFCDBFDE
:1000800012E0A0E0B1E0E0E6F2E002C005900D92DF
:10009000AE36B107D9F712E0AEE6B2E001C01D926C
:1000A000A737B107E1F70E94D1000C942E010C9400
:1000B00000009BB121E030E002C0220F331F8A957F
:1000C000E2F7922B9BB98BB11BB8089515B88FEF4F
:1000D00084B918B817B81BB883E08AB9EEE6F0E027
:1000E00080818160808385B5826085BD789481E060
:1000F0000E945900089510926F021092700210929F
:100100007102109272021092730210927402109295
:100110007502109276020895282F392FD901EFE643
:10012000F2E08D91819382E0E737F807D1F70895E7
:10013000CF93DF93DC012DC088E090E0EFE3FCE992
:100140003197F1F700C00000CFE6D2E020E030E0C8
:10015000EC91FF27E7FDF095F09743E0EE0FFF1FCE
:100160004A95E1F7E20FF31FEA5FFE4F4081552702
:1001700047FD5095082E02C0559547950A94E2F721
:1001800049932F5F3F4F2830310511F70197B1F6A2
:1001900011968C91882381F60E947B00DF91CF918C
:1001A00008950F931F93DF93CF93CDB7DEB760977A
:1001B0000FB6F894DEBF0FBECDBF0E9466008E0161
:1001C0000F5F1F4FC80160E071E00E942701C80166
:1001D0000E949800FFCF1F920F920FB60F9211242A
:1001E0002F933F934F935F936F937F938F939F933F
:1001F000AF93BF93EF93FF9315B880E00E9459002F
:1002000080916E0288302CF010926E0281E00E9484
:10021000590080916E02E82FFF27E7FDF095E15924
:10022000FD4F908195B98F5F80936E02FF91EF91A2
:10023000BF91AF919F918F917F916F915F914F91FE
:100240003F912F910F900FBE0F901F901895FB01BB
:10025000DC0101900D920020E1F70895F894FFCFA2
:10026000434852495300003C666E7666663C00186F
:1002700018381818187E003C66060C30607E003C6A
:1002800066061C06663C000C1C2C4C7E0C0C007E8A
:10029000607C0606663C003C66607C66663C007ED0
:1002A000660C0C181818003C66663C66663C003C00
:1002B00066663E06663C000018180018180000002C
:1002C00018180018183000060C1830180C0600001A
:1002D000003C003C0000006030180C183060003C0E
:1002E00066061C1800180038445C58423C00003C6C
:1002F00066667E666666007C66667C66667C003C3A
:1003000066606060663C007C66666666667C007E51
:1003100060607C60607E007E60607C606060003C4D
:100320006660606E663C006666667E666666003C79
:1003300018181818183C001E0C0C0C6C6C38006651
:100340006C7870786C66006060606060607E0063EE
:10035000777F6B6363630063737B6F676363003CEA
:1003600066666666663C007C6666667C6060003C2D
:100370006666666E3C06007C66667C786C66003C51
:1003800066603C06663C007E5A181818181800660D
:1003900066666666663E0066666666663C1800636C
:1003A00063636B7F7763006363361C366363006649
:1003B00066663C181818007E060C1830607E001E19
:0E03C00018181818181E00006030180C0600DF
:00000001FF
