:100000000C943A000C9457000C9457000C94570031
:100010000C9457000C9457000C9457000C94570004
:100020000C9457000C9457000C9457000C945700F4
:100030000C9457000C9457000C9457000C945700E4
:100040000C9457000C9457000C9457000C945700D4
:100050000C9457000C941C010C9457000C945700FE
:100060000C9457000C9457000C9457000C945700B4
:100070000C94570011241FBECFEFD2E0DEBFCDBFDE
:1000800012E0A0E0B1E0E2ECF2E002C005900D92D7
:10009000A037B107D9F712E0A0E7B2E001C01D9286
:1000A000A23FB107E1F70E94F7000C945F010C94A6
:1000B00000009BB121E030E002C0220F331F8A957F
:1000C000E2F7922B9BB98BB11BB8089515B88FEF4F
:1000D00084B918B817B81BB883E08AB9EEE6F0E027
:1000E00080818160808385B5826085BD789481E060
:1000F0000E9459000895CF93DF93282F392FE901EB
:10010000A1E7B2E080E090E0E991FF27E7FDF095FC
:10011000F09723E0EE0FFF1F2A95E1F7E80FF91F94
:10012000E95FFE4F20812D9301968830910561F79C
:10013000DF91CF910895CF93DF93DC0120E030E091
:1001400040E018C0EC91FF27E7FDF095F09763E0E1
:10015000EE0FFF1F6A95E1F7E80FF91FE95FFE4F09
:100160005081599301968830910561F7485F119647
:100170002F5F3F4F8C91882359F0E90153E0CC0F5A
:10018000DD1F5A95E1F7CF58DD4F80E090E0DACFE0
:100190004093F102DF91CF9108958091F102992768
:1001A00087FD90950897A1E7B2E040E05D91551F6B
:1001B0005527551F642F09C03085331F3327331F40
:1001C0002081220F232B2083685F262F332727FDD2
:1001D0003095F901EF58FD4F281739076CF320814E
:1001E000220F252B20834F5F483001F708950F938E
:1001F0001F93DF93CF93CDB7DEB760970FB6F89418
:10020000DEBF0FBECDBF0E9466008E010F5F1F4F85
:10021000C80160E071E00E945801C8010E949B0083
:100220000E94CD008FEF99EFA0E081509040A04058
:10023000E1F700C00000F4CF1F920F920FB60F92AB
:1002400011242F933F934F935F936F937F938F93DB
:100250009F93AF93BF93EF93FF9315B880E00E94F5
:1002600059008091700288302CF01092700281E069
:100270000E94590080917002E82FFF27E7FDF0955A
:10028000EF58FD4F908195B98F5F80937002FF9179
:10029000EF91BF91AF919F918F917F916F915F91FE
:1002A0004F913F912F910F900FBE0F901F90189577
:1002B000FB01DC0101900D920020E1F70895F89414
:0202C000FFCF6E
:1002C20043485249532E00003C666E7666663C00F7
:1002D2001818381818187E003C66060C30607E002C
:1002E2003C66061C06663C000C1C2C4C7E0C0C006A
:1002F2007E607C0606663C003C66607C66663C006E
:100302007E660C0C181818003C66663C66663C005B
:100312003C66663E06663C0000181800181800008D
:100322000018180018183000060C1830180C0600B7
:1003320000003C003C0000006030180C18306000E7
:100342003C66061C1800180038445C58423C000009
:100352003C66667E666666007C66667C66667C00D7
:100362003C66606060663C007C66666666667C0031
:100372007E60607C60607E007E60607C60606000A9
:100382003C6660606E663C006666667E6666660017
:100392003C18181818183C001E0C0C0C6C6C380019
:1003A200666C7870786C66006060606060607E0089
:1003B20063777F6B6363630063737B6F6763630061
:1003C2003C66666666663C007C6666667C606000CB
:1003D2003C6666666E3C06007C66667C786C6600EF
:1003E2003C66603C06663C007E5A181818181800D5
:1003F2006666666666663E0066666666663C180007
:100402006363636B7F7763006363361C36636300E9
:100412006666663C181818007E060C1830607E006E
:100422001E18181818181E00006030180C0600005C
:00000001FF
