:100000000C943A000C9457000C9457000C94570031
:100010000C9457000C9457000C9457000C94570004
:100020000C9457000C9457000C9457000C945700F4
:100030000C9457000C9457000C9457000C945700E4
:100040000C9457000C9457000C9457000C945700D4
:100050000C9457000C9442010C9457000C945700D8
:100060000C9457000C9457000C9457000C945700B4
:100070000C94570011241FBECFEFD2E0DEBFCDBFDE
:1000800015E0A0E0B1E0EAE1F3E002C005900D92D6
:10009000A830B107D9F715E0A8E0B5E001C01D927E
:1000A000A231B107E1F70E9424010C948B010C945A
:1000B00000009BB121E030E002C0220F331F8A957F
:1000C000E2F7922B9BB98BB11BB8089515B88FEF4F
:1000D00084B918B817B81BB883E08AB9EEE6F0E027
:1000E00080818160808385B5826085BD789481E060
:1000F0000E945900089510920A0510920B05109263
:100100000C0510920D0510920E0510920F0510921D
:100110001005109211050895282F392FD901EAE012
:10012000F5E08D91819385E0E231F807D1F70895EC
:10013000CF93DF93DC0169C088E090E0EFE7FBEB51
:100140003197F1F700C00000CAE0D5E020E030E0D0
:10015000EC91FF27E7FDF095F09763E0EE0FFF1FAE
:100160006A95E1F7E20FF31FE85FFE4F40815527E4
:1001700047FD5095082E02C0559547950A94E2F721
:100180006881660F642B69932F5F3F4F28303105DC
:10019000F9F6019799F611968C911197882319F425
:1001A00080E090E037C088E090E0EFE7FBEB31972C
:1001B000F1F700C00000CAE0D5E020E030E0119681
:1001C000EC911197FF27E7FDF095F09753E0EE0FC4
:1001D000FF1F5A95E1F7E20FF31FE85FFE4F4081E2
:1001E000552747FD5095082E02C0559547950A940E
:1001F000E2F76881660F642B69932F5F3F4F2830C9
:100200003105E9F6019789F612968C91882309F059
:1002100093CFC6CFEFE5FAEE3197F1F700C00000BB
:10022000EAE0F5E02081332727FD3095220F331FC8
:10023000219325E0E231F207A9F701968830910574
:1002400049F7DF91CF910895FF920F931F93DF93AA
:10025000CF93CDB7DEB7A0970FB6F894DEBF0FBE31
:10026000CDBF0E9466008E010F5F1F4FC80160E086
:1002700071E00E948401F02E012F8F2D902F0E949B
:100280009800FBCF1F920F920FB60F9211242F935D
:100290003F934F935F936F937F938F939F93AF930E
:1002A000BF93EF93FF9315B880E00E9459008091AF
:1002B000080590910905883091053CF010920905D8
:1002C0001092080581E00E945900809108059091E4
:1002D0000905FC01E65FFA4F208125B9019690934C
:1002E000090580930805FF91EF91BF91AF919F9110
:1002F0008F917F916F915F914F913F912F910F90CF
:100300000FBE0F901F901895FB01DC0101900D921C
:0A0310000020E1F70895F894FFCFF4
:10031A0054455354494E47000000000000000000B5
:10032A00003E41554155493E003E7F6B7F6B773E0B
:10033A000022777F7F3E1C0800081C3E7F3E1C0877
:10034A0000081C2A7F2A081C00081C3E7F3E081C45
:10035A0000001C3E3E3E1C00FFFFE3C1C1C1E3FF9B
:10036A0000001C2222221C00FFFFE3DDDDDDE3FF8B
:10037A00000F03053948483000083E081C22221C99
:10038A000018141010307060000F191113377660BE
:10039A0000082A1C771C2A080060787E7F7E786015
:1003AA0000030F3F7F3F0F0300081C2A082A1C087E
:1003BA000066666666006666003F65653D0505057A
:1003CA00000C324824124C3000000000007F7F7F6E
:1003DA0000081C2A082A1C3E00081C3E7F1C1C1C04
:1003EA00001C1C1C7F3E1C0800080C7E7F7E0C082B
:1003FA000008183F7F3F18080000007070707F7F68
:10040A00000014227F22140000081C1C3E3E7F7F3D
:10041A00007F7F3E3E1C1C08000000000000000018
:10042A0000183C3C1818001800363614000000006A
:10043A000036367F367F363600081E201C023C08FE
:10044A000060660C18306606003C663C2865663F0C
:10045A0000181818300000000060301818183060B2
:10046A0000060C1818180C060000361C7F1C3600F3
:10047A00000008083E080800000000003030306024
:10048A00000000003C000000000000000000606066
:10049A000000060C18306000003C666E7666663C0A
:1004AA00001818381818187E003C66060C30607E52
:1004BA00003C66061C06663C000C1C2C4C7E0C0C90
:1004CA00007E607C0606663C003C66607C66663C94
:1004DA00007E660C0C181818003C66663C66663C82
:1004EA00003C66663E06663C0000181800181800B4
:1004FA00000018180018183000060C1830180C06DE
:10050A000000003C003C0000006030180C1830600D
:10051A00003C66061C1800180038445C58423C002F
:10052A00003C66667E666666007C66667C66667CFD
:10053A00003C66606060663C007C66666666667C57
:10054A00007E60607C60607E007E60607C606060CF
:10055A00003C6660606E663C006666667E6666663D
:10056A00003C18181818183C001E0C0C0C6C6C383F
:10057A0000666C7870786C66006060606060607EAF
:10058A000063777F6B6363630063737B6F67636387
:10059A00003C66666666663C007C6666667C6060F1
:1005AA00003C6666666E3C06007C66667C786C6615
:1005BA00003C66603C06663C007E5A1818181818FB
:1005CA00006666666666663E0066666666663C182D
:1005DA00006363636B7F7763006363361C36636310
:1005EA00006666663C181818007E060C1830607E95
:1005FA00001E18181818181E00006030180C060083
:10060A0000781818181818780008142241000000F9
:10061A00000000000000007F000C0C060000000033
:10062A000000003C063E663E006060607C66667CB8
:10063A000000003C6660663C000606063E66663EB2
:10064A000000003C667E603C001C3630307C303056
:10065A0000003E66663E063C006060607C66666638
:10066A00000018001818183C000C000C0C6C6C38B0
:10067A00006060666C786C660018181818181818EC
:10068A0000000063777F6B6B0000007C7E66666605
:10069A000000003C6666663C00007C66667C606022
:1006AA0000003C6C6C3C0D0F0000007C66666060CC
:1006BA000000003E403C027C000018187E18181802
:1006CA00000000666666663E0000000066663C182A
:1006DA00000000636B6B6B3E000000663C183C66D2
:1006EA0000000066663E063C0000003C0C18303CE8
:1006FA00000E18183018180E0018181800181818B4
:10070A00007018180C1818700000003A6C000000ED
:08071A0000081C366341417F19
:00000001FF
