:100000000C943A000C9457000C9457000C94570031
:100010000C9457000C9457000C9457000C94570004
:100020000C9457000C9457000C9457000C945700F4
:100030000C9457000C9457000C9457000C945700E4
:100040000C9457000C9457000C9457000C945700D4
:100050000C9457000C9442010C9457000C945700D8
:100060000C9457000C9457000C9457000C945700B4
:100070000C94570011241FBECFEFD2E0DEBFCDBFDE
:1000800012E0A0E0B1E0EAE1F3E002C005900D92D9
:10009000A637B107D9F712E0A6E7B2E001C01D927A
:1000A000A038B107E1F70E9424010C948B010C9455
:1000B00000009BB121E030E002C0220F331F8A957F
:1000C000E2F7922B9BB98BB11BB8089515B88FEF4F
:1000D00084B918B817B81BB883E08AB9EEE6F0E027
:1000E00080818160808385B5826085BD789481E060
:1000F0000E9459000895109278021092790210928D
:100100007A0210927B0210927C0210927D02109271
:100110007E0210927F020895282F392FD901E8E737
:10012000F2E08D91819382E0E038F807D1F70895ED
:10013000CF93DF93DC0169C088E090E0EFE7FBEB51
:100140003197F1F700C00000C8E7D2E020E030E0CE
:10015000EC91FF27E7FDF095F09763E0EE0FFF1FAE
:100160006A95E1F7E20FF31FE35FFE4F40815527E9
:1001700047FD5095082E02C0559547950A94E2F721
:100180006881660F642B69932F5F3F4F28303105DC
:10019000F9F6019799F611968C911197882319F425
:1001A00080E090E037C088E090E0EFE7FBEB31972C
:1001B000F1F700C00000C8E7D2E020E030E011967F
:1001C000EC911197FF27E7FDF095F09753E0EE0FC4
:1001D000FF1F5A95E1F7E20FF31FE35FFE4F4081E7
:1001E000552747FD5095082E02C0559547950A940E
:1001F000E2F76881660F642B69932F5F3F4F2830C9
:100200003105E9F6019789F612968C91882309F059
:1002100093CFC6CFEFE5FAEE3197F1F700C00000BB
:10022000E8E7F2E02081332727FD3095220F331FC6
:10023000219322E0E038F207A9F701968830910572
:1002400049F7DF91CF910895FF920F931F93DF93AA
:10025000CF93CDB7DEB7A0970FB6F894DEBF0FBE31
:10026000CDBF0E9466008E010F5F1F4FC80160E086
:1002700071E00E948401F02E012F8F2D902F0E949B
:100280009800FBCF1F920F920FB60F9211242F935D
:100290003F934F935F936F937F938F939F93AF930E
:1002A000BF93EF93FF9315B880E00E9459008091AF
:1002B000760290917702883091053CF01092770297
:1002C0001092760281E00E9459008091760290910E
:1002D0007702FC01E858FD4F208125B901969093E3
:1002E000770280937602FF91EF91BF91AF919F913A
:1002F0008F917F916F915F914F913F912F910F90CF
:100300000FBE0F901F901895FB01DC0101900D921C
:0A0310000020E1F70895F894FFCFF4
:10031A00494E44594341525343454E4500003C66B9
:10032A006E7666663C001818381818187E003C6607
:10033A00060C30607E003C66061C06663C000C1CFF
:10034A002C4C7E0C0C007E607C0606663C003C66EB
:10035A00607C66663C007E660C0C181818003C66C9
:10036A00663C66663C003C66663E06663C000018D3
:10037A001800181800000018180018183000060C89
:10038A001830180C060000003C003C0000006030E9
:10039A00180C183060003C66061C18001800384417
:1003AA005C58423C00003C66667E666666007C6677
:1003BA00667C66667C003C66606060663C007C66C3
:1003CA00666666667C007E60607C60607E007E6039
:1003DA00607C606060003C6660606E663C006666D9
:1003EA00667E666666003C18181818183C001E0CD3
:1003FA000C0C6C6C3800666C7870786C6600606007
:10040A00606060607E0063777F6B63636300637321
:10041A007B6F676363003C66666666663C007C6663
:10042A0066667C6060003C6666666E3C06007C66BA
:10043A00667C786C66003C66603C06663C007E5AC8
:10044A001818181818006666666666663E006666BC
:10045A006666663C18006363636B7F776300636359
:10046A00361C366363006666663C181818007E06FA
:10047A000C1830607E001E18181818181E0000602C
:06048A0030180C06000012
:00000001FF
