:100000000C943A020C9457020C9457020C94570229
:100010000C9457020C9457020C9457020C945702FC
:100020000C9457020C9457020C9457020C945702EC
:100030000C9457020C9457020C9457020C945702DC
:100040000C9457020C9457020C9457020C945702CC
:100050000C9457020C94AF030C9457020C94570263
:100060000C9457020C9457020C9457020C945702AC
:100070000C9457020000000000000000003E4155B3
:100080004155493E003E7F6B7F6B773E0022777F74
:100090007F3E1C0800081C3E7F3E1C0800081C2AEE
:1000A0007F2A081C00081C3E7F3E081C00001C3EE6
:1000B0003E3E1C00FFFFE3C1C1C1E3FF00001C2264
:1000C00022221C00FFFFE3DDDDDDE3FF000F03055F
:1000D0003948483000083E081C22221C0018141021
:1000E00010307060000F19111337766000082A1C59
:1000F000771C2A080060787E7F7E786000030F3FBF
:100100007F3F0F0300081C2A082A1C080066666649
:1001100066006666003F65653D050505000C3248D2
:1001200024124C3000000000007F7F7F00081C2A52
:10013000082A1C3E00081C3E7F1C1C1C001C1C1CAA
:100140007F3E1C0800080C7E7F7E0C080008183FCC
:100150007F3F18080000007070707F7F000014223D
:100160007F22140000081C1C3E3E7F7F007F7F3EE4
:100170003E1C1C08000000000000000000183C3C71
:100180001818001800363614000000000036367FBC
:10019000367F363600081E201C023C080060660CC4
:1001A00018306606003C663C2865663F0018181843
:1001B00030000000006030181818306000060C187D
:1001C00018180C060000361C7F1C360000000808BA
:1001D0003E080800000000003030306000000000E1
:1001E0003C00000000000000000060600000060C01
:1001F00018306000003C666E7666663C0018183861
:100200001818187E003C66060C30607E003C6606BE
:100210001C06663C000C1C2C4C7E0C0C007E607C8A
:100220000606663C003C66607C66663C007E660CAA
:100230000C181818003C66663C66663C003C666616
:100240003E06663C00001818001818000000181838
:100250000018183000060C1830180C060000003C7E
:10026000003C0000006030180C183060003C66064E
:100270001C1800180038445C58423C00003C66667C
:100280007E666666007C66667C66667C003C6660B0
:100290006060663C007C66666666667C007E6060C8
:1002A0007C60607E007E60607C606060003C6660B8
:1002B000606E663C006666667E666666003C181880
:1002C0001818183C001E0C0C0C6C6C3800666C780E
:1002D00070786C66006060606060607E0063777F4D
:1002E0006B6363630063737B6F676363003C666685
:1002F0006666663C007C6666667C6060003C66669E
:10030000666E3C06007C66667C786C66003C6660C7
:100310003C06663C007E5A18181818180066666677
:100320006666663E0066666666663C1800636363E2
:100330006B7F7763006363361C36636300666666B3
:100340003C181818007E060C1830607E001E181825
:100350001818181E00006030180C060000781818D5
:10036000181818780008142241000000000000004E
:100370000000007F000C0C06000000000000003CA4
:10038000063E663E006060607C66667C0000003C65
:100390006660663C000606063E66663E0000003C5F
:1003A000667E603C001C3630307C303000003E669B
:1003B000663E063C006060607C6666660000180071
:1003C0001818183C000C000C0C6C6C38006060664F
:1003D0006C786C660018181818181818000000635C
:1003E000777F6B6B0000007C7E6666660000003CD9
:1003F0006666663C00007C66667C606000003C6C63
:100400006C3C0D0F0000007C666660600000003EE2
:10041000403C027C000018187E1818180000006686
:100420006666663E0000000066663C1800000063D9
:100430006B6B6B3E000000663C183C66000000667B
:10044000663E063C0000003C0C18303C000E1818BC
:100450003018180E001818180018181800701818FE
:100460000C1818700000003A6C00000000081C36E0
:100470006341417F11241FBECFEFD2E0DEBFCDBF6D
:1004800011E0A0E0B1E0E8ECFDE002C005900D92C3
:10049000AA30B107D9F711E0AAE0B1E001C01D927E
:1004A000A431B107E1F70E943C030C94E2060C94DE
:1004B00000009BB121E030E002C0220F331F8A957B
:1004C000E2F7922B9BB98BB11BB8089515B88FEF4B
:1004D00084B918B817B81BB883E08AB9EEE6F0E023
:1004E00080818160808385B5826085BD789481E05C
:1004F0000E945902089510920C0110920D01109261
:100500000E0110920F011092100110921101109221
:100510001201109213010895282F392FD901ECE010
:10052000F1E08D91819381E0E431F807D1F70895EE
:10053000CF93DF93ACE0B1E020E030E0EC01E88164
:10054000FF27E7FDF09543E0EE0FFF1F4A95E1F727
:10055000E20FF31FEC58FF4FE491ED932F5F3F4FF5
:100560002830310559F7DF91CF910895CF93DF936C
:10057000DC0163C088E090E0EFE7FBEB3197F1F737
:1005800000C00000CCE0D1E020E030E0EC91FF279B
:10059000E7FDF09573E0EE0FFF1F7A95E1F7E20FAC
:1005A000F31FEC58FF4FE491F0E0082E02C0F595E0
:1005B000E7950A94E2F74881440F4E2B49932F5F49
:1005C0003F4F2830310511F70197B1F611968C9104
:1005D0001197882319F480E090E034C088E090E01F
:1005E000EFE7FBEB3197F1F700C00000CCE0D1E082
:1005F00020E030E01196EC911197FF27E7FDF09590
:1006000063E0EE0FFF1F6A95E1F7E20FF31FEC586E
:10061000FF4FE491F0E0082E02C0F595E7950A94AB
:10062000E2F74881440F4E2B49932F5F3F4F28300C
:10063000310501F70197A1F612968C91882309F0F4
:1006400099CFC9CFEFE5FAEE3197F1F700C000007E
:10065000ECE0F1E02081332727FD3095220F331F96
:10066000219321E0E431F207A9F701968830910542
:1006700049F7DF91CF910895BF92CF92DF92EF9229
:10068000FF920F931F93DF93CF93CDB7DEB7A09761
:100690000FB6F894DEBF0FBECDBF0E9466028E017A
:1006A0000F5F1F4FC80160E071E00E94F103C801B5
:1006B0000E94B60200D000D000D0EDB7FEB7319650
:1006C000ADB7BEB712961C930E931197A7E0CA2E32
:1006D000A1E0DA2ED382C282158214820E94F8032E
:1006E0008DB79EB706960FB6F8949EBF0FBE8DBF0E
:1006F000C8010E949802EE24FF24B02E012F1C2D69
:10070000CD2C4F99FECF0894E11CF11C00D000D0F5
:1007100000D0EDB7FEB73196ADB7BEB71196BC921B
:10072000119712960C931283C382F582E4820E9481
:10073000F8038DB79EB706960FB6F8949EBF0FBE0E
:100740008DBF8B2D902F0E9498028FE798E3A1E038
:1007500081509040A040E1F700C00000D2CF1F922E
:100760000F920FB60F9211242F933F934F935F93E5
:100770006F937F938F939F93AF93BF93EF93FF9369
:1007800015B880E00E94590280910A0190910B01F6
:10079000883091053CF010920B0110920A0181E023
:1007A0000E94590280910A0190910B01FC01E45FC3
:1007B000FE4F208125B9019690930B0180930A0189
:1007C000FF91EF91BF91AF919F918F917F916F9129
:1007D0005F914F913F912F910F900FBE0F901F90FF
:1007E0001895FB01DC0101900D920020E1F70895BE
:1007F000AEE0B0E0EEEFF3E00C94B9060D891E898F
:1008000086E08C831A8309838FEF9FE79E838D8315
:100810009E01275E3F4FCE0101966F89788DA90119
:100820000E941B04EF81F885E00FF11F10822E96C5
:10083000E4E00C94D506ACE0B0E0E1E2F4E00C9426
:10084000AB066C011B018A01FC01178216828381B1
:1008500081FFCFC12E010894411C511CF6019381E8
:10086000F10193FD859193FF81911F01882309F484
:10087000BCC1853239F493FD859193FF81911F01AD
:10088000853229F490E0B6010E941606E7CFEE24E7
:10089000FF2420E02032B0F48B3269F08C3228F44F
:1008A000803251F0833271F40BC08D3239F08033D5
:1008B00049F421602AC02260246027C0286025C036
:1008C000206123C027FD2AC0382F30533A3088F4E6
:1008D00026FF07C08E2D6AE00E94A206E82EE30ED6
:1008E00014C08F2D6AE00E94A206F82EF30E20623B
:1008F0000CC08E3221F426FD78C1206406C08C36EF
:1009000011F4206802C0883649F4F10193FD859105
:1009100093FF81911F01882309F0BCCF982F955434
:10092000933018F09052933028F40C5F1F4FFFE380
:10093000F9830DC0833631F0833771F0833509F0C8
:1009400060C022C0F801808189830E5F1F4F420181
:1009500071E0A72EB12C16C062E0662E712C600EDD
:10096000711EF8018080918026FF03C06E2D70E01B
:1009700002C06FEF7FEFC4012C870E940B065C0161
:1009800083012C852F7717C052E0652E712C600EE5
:10099000711EF8018080918026FF03C06E2D70E0EB
:1009A00002C06FEF7FEFC4012C870E9400065C013C
:1009B0002C852068830123FD20C008C080E290E0E0
:1009C000B6012C870E941606FA942C858F2D90E094
:1009D000A816B90698F311C0F40127FD859127FFE9
:1009E00081914F0190E0B6012C870E9416062C855C
:1009F000F110FA940894A108B108A114B10461F7A8
:100A0000F1C0843611F0893649F527FF08C0F80196
:100A100060817181828193810C5F1F4F09C0F80151
:100A200060817181882777FD8095982F0E5F1F4F19
:100A30004FE6B42EB22297FF09C09095809570952D
:100A400061957F4F8F4F9F4FF0E8BF2AA2012AE0A8
:100A500030E00E944206782E741845C0853731F484
:100A60003FEEB32EB2222AE030E025C099EFB92E36
:100A7000B2228F36C1F0803720F4883509F0B5C036
:100A80000DC0803721F0883709F0AFC002C020E1E7
:100A9000B22AB4FE0BC084E0B82A08C0B4FE09C074
:100AA000E6E0BE2A06C028E030E005C020E130E0E4
:100AB00002C020E132E0B7FE08C0F8016081718118
:100AC000828193810C5F1F4F07C0F80160817181A3
:100AD00080E090E00E5F1F4FA2010E944206782E38
:100AE0007418FFE7BF22B6FE0BC02EEFB2227E14B1
:100AF00038F4B4FE07C0B2FC05C08FEEB82202C0C5
:100B0000A72C01C0AE2C8B2D90E0B4FE0DC0FE01D1
:100B1000E70DF11D2081203319F4E9EEBE2209C052
:100B2000A394B2FE06C004C086789070009709F0C6
:100B3000A3948B2C9924B3FC14C0B0FE0FC0AF1447
:100B400028F4E72CEF0CEA18AF2C08C0E72C06C0FD
:100B500080E290E0B6010E941606A394AF14C0F3A1
:100B600004C0AF1410F4FA1801C0FF2484FE0FC0B3
:100B700080E390E0B6010E94160682FE1FC081FE4F
:100B800003C088E590E010C088E790E00DC0C40184
:100B900086789070009791F081FC02C080E201C0DD
:100BA0008BE2B7FC8DE290E0B6010E94160606C00B
:100BB00080E390E0B6010E941606EA947E14C0F32A
:100BC0007A94F201E70DF11D808190E0B6010E9458
:100BD00016067720A9F706C080E290E0B6010E94D1
:100BE0001606FA94FF20C1F739CEF6012681378127
:100BF00002C02FEF3FEFC9012C96E2E10C94C7062B
:100C0000FC010590615070400110D8F780959095D7
:100C10008E0F9F1F0895FC016150704001900110DC
:100C2000D8F7809590958E0F9F1F08950F931F936F
:100C3000CF93DF938C01EB018B8181FF1BC082FF7F
:100C40000DC02E813F818C819D812817390764F466
:100C5000E881F9810193F983E88306C0E885F98585
:100C6000802F0995009731F48E819F8101969F8393
:100C70008E8302C00FEF1FEFC801DF91CF911F914C
:100C80000F910895FA01AA27283061F1203191F1DE
:100C9000E8946F936E7F6E5F7F4F8F4F9F4FAF4F84
:100CA000B1E040D0B4E03ED0670F781F891F9A1F93
:100CB000A11D680F791F8A1F911DA11D6A0F711D4B
:100CC000811D911DA11D22D009F468943F91062E2B
:100CD000000C3019000C000C3019305D3193CEF649
:100CE000CF010895462F4770405D4193B3E00FD088
:100CF000C9F7F6CF462F4F70405D4A3318F0495D73
:100D000031FD4052419302D0A9F7EACFB4E0A69555
:100D10009795879577956795BA95C9F70097610577
:100D2000710508959B01AC010A2E069457954795CD
:100D300037952795BA95C9F7620F731F841F951FC2
:100D4000A01D0895002480FD060E660F11F0869503
:100D5000D1F7802D08952F923F924F925F926F921C
:100D60007F928F929F92AF92BF92CF92DF92EF923B
:100D7000FF920F931F93CF93DF93CDB7DEB7CA1BBC
:100D8000DB0B0FB6F894DEBF0FBECDBF09942A88E7
:100D9000398848885F846E847D848C849B84AA848F
:100DA000B984C884DF80EE80FD800C811B81AA811C
:100DB000B981CE0FD11D0FB6F894DEBF0FBECDBFE7
:080DC000ED010895F894FFCF46
:0A0DC800434D4A44455600256900DA
:00000001FF
